:100000000C9434000C9451000C9451000C94F400A6
:100010000C9451000C9451000C9451000C9451001C
:100020000C9451000C9451000C9451000C9451000C
:100030000C9451000C9451000C9451000C945100FC
:100040000C9451000C9451000C9451000C945100EC
:100050000C9451000C9471000C9451000C945100BC
:100060000C9451000C94510011241FBECFEFD8E026
:10007000DEBFCDBF11E0A0E0B1E0E2E2F2E002C0FD
:1000800005900D92A031B107D9F721E0A0E1B1E0D0
:1000900001C01D92A131B207E1F70E9491000C94BA
:1000A0000F010C940000ECE7F0E010828081806486
:1000B000808380818F778083808180628083EAE77C
:1000C000F0E01082808180688083808188608083F6
:1000D000808187608083EEE7F0E0808181608083AB
:1000E00008951F920F920FB60F9211248F93EF93E2
:1000F000FF93EAE7F0E0808180618083FF91EF91D8
:100100008F910F900FBE0F901F901895E8E6F0E0CA
:10011000808181608083EBE6F0E080818360808372
:100120000895F89487B18E6087B918B888B1826055
:1001300088B98FEF8AB91BB81092C10085B183606E
:1001400085B984B184B984B1806184B90E945300B7
:100150000E9486007894EAE7F0E0808180648083E2
:100160008FE19EE40197F1F700C0000080917900D3
:10017000A82FA295AF70E82FEF7018B898B19260D1
:1001800098B998B198B9909110019BB9CFE1DEE48C
:100190002197F1F700C0000018B898B1946098B9A1
:1001A00098B198B9B0E0A050BF4F9C919BB9AFE116
:1001B000BEE41197F1F700C0000018B898B198603C
:1001C00098B998B198B9F0E0E050FF4F90819BB991
:1001D00090911001981720F485B1806185B9BBCF4B
:1001E00085B18F7E85B9B7CF1F920F920FB60F9250
:1001F00011248F93189906C0809110018F5F80930E
:10020000100107C0199905C0809110018150809399
:1002100010018F910F900FBE0F901F901895F894BA
:02022000FFCF0E
:100222003F065B4F666D7D077F6F777C395E797124
:00000001FF
