:100000000C9434000C9446000C9446000C946C0044
:100010000C9446000C9446000C9446000C94460048
:100020000C9446000C9446000C9446000C94460038
:100030000C9446000C9446000C9446000C94460028
:100040000C9446000C9446000C9446000C94460018
:100050000C9446000C9446000C9446000C94460008
:100060000C9446000C94460011241FBECFEFD8E03C
:10007000DEBFCDBF21E0A0E0B1E001C01D92A13004
:10008000B207E1F70E9453000C9487000C94000023
:10009000E8E6F0E0808181608083EBE6F0E080813B
:1000A000836080830895F89487B18E6087B918B80B
:1000B00088B1826088B98FEF8AB91BB81092C100ED
:1000C00085B1836085B984B184B90E944800789471
:1000D000809100018BB9FCCF1F920F920FB60F9247
:1000E00011248F93189906C0809100018F5F80932F
:1000F000000107C0199905C08091000181508093CB
:1001000000018F910F900FBE0F901F901895F894DB
:02011000FFCF1F
:00000001FF
